:107D2000A9EF3EF00F0EC16E8A688C6A896A8B6A71
:107D30009368956A926A946A000E6B6F000E6C6F7E
:107D4000000E696F000E6D6F000E6E6F000E6F6F8C
:107D5000120092EC3EF081B0C5EC3EF081B2CAEC6C
:107D60003EF081B4BBEC3EF06B516BC06CF019EC93
:107D70003FF0ABEF3EF0E4EC3EF081B4BBEF3EF001
:107D8000B40E6B636B2BABEF3EF019EC3FF0ABEF37
:107D90003EF012006B516BC06CF081B0C5EF3EF04D
:107DA00081B2CAEF3EF081B4BBEF3EF0DFEC3EF0B3
:107DB0006C07000E6C63CDEF3EF0ABEF3EF0FEECD7
:107DC0003EF019EC3FF01200FF0E616F8C0E626FF7
:107DD000030E686F0000612FEBEF3EF0622FEAEFB9
:107DE0003EF0682FEAEF3EF01200050E636F0000D0
:107DF000E4EC3EF0632FF8EF3EF012000A0E646FE1
:107E00000000E4EC3EF0642F01EF3FF01200050E9D
:107E1000656F0000FEEC3EF0652F0AEF3FF01200A8
:107E20000A0E666F0000FEEC3EF0662F13EF3FF087
:107E300012006CC06AF06A513C0806E66A510908F3
:107E40000CE636EF3FF012003C0E6A5F6D2B3C0EE5
:107E50006A651FEF3FF024EF3FF00A0E6A5F6E2B5A
:107E60000A0E6A6521EF3FF02DEF3FF06AC06FF018
:107E7000000E6F5D57E0010E6F5D58E0020E6F5D02
:107E800059E0030E6F5D5AE0040E6F5D5BE0050E76
:107E90006F5D5CE0060E6F5D5DE0070E6F5D5EE09E
:107EA000080E6F5D5FE0090E6F5D60E0000E6E5DB5
:107EB00061E0010E6E5D62E0020E6E5D63E0030E36
:107EC0006E5D64E0040E6E5D65E0050E6E5D66E05D
:107ED000060E6E5D67E0070E6E5D68E0080E6E5D73
:107EE00069E0090E6E5D6AE0000E6D5D6BE0010EEB
:107EF0006D5D6BE0020E6D5D6BE0030E6D5D6BE022
:107F0000040E6D5D6BE0050E6D5D6BE0060E6D5D44
:107F10006BE0070E6D5D6BE0080E6D5D6BE0090EAA
:107F20006D5D6BE03F0E836E56EF3FF0060E836E85
:107F300056EF3FF05B0E836E56EF3FF04F0E836EB1
:107F400056EF3FF0660E836E56EF3FF06D0E836E78
:107F500056EF3FF07D0E836E56EF3FF0070E836EB7
:107F600056EF3FF07F0E836E56EF3FF06F0E836E3D
:107F700056EF3FF03F0E806E74EF3FF0060E806EBE
:107F800074EF3FF05B0E806E74EF3FF04F0E806E2B
:107F900074EF3FF0660E806E74EF3FF06D0E806EF2
:107FA00074EF3FF07D0E806E74EF3FF0070E806E31
:107FB00074EF3FF07F0E806E74EF3FF06F0E806EB7
:107FC00074EF3FF03F0E826E1200060E826E1200BA
:107FD0005B0E826E12004F0E826E1200660E826E73
:107FE00012006D0E826E12007D0E826E1200070E60
:107FF000826E12007F0E826E12006F0E826E120071
:020000040030CA
:04000000550E1E007B
:020005008080F9
:060008000FC00FE00F40E5
:00000001FF
