:107CCA0080EF3EF00F0EC16E8A688C6A896A8B6AF1
:107CDA008D6A9368956A926A966A946AB40E6B6F13
:107CEA00000E6C6F000E696F000E6D6F000E6E6FE6
:107CFA00000E6F6F120067EC3EF0000E6D6F6F6F33
:107D0A006E6F6C6FB50E6B5D1CE081B0A9EC3EF036
:107D1A0081B2B8EC3EF081B499EC3EF06BC06CF0E5
:107D2A00D9EC3EF082EF3EF0CBEC3FF081B499EF14
:107D3A003EF0000E6B636B076BC06CF0D9EC3EF043
:107D4A001200000E6B6F1200000E6D6F6F6F6E6F78
:107D5A0081B2B8EF3EF081B499EF3EF0D9EC3EF033
:107D6A00A9EF3EF012006B516BC06CF0000E6D6F04
:107D7A006F6F6E6F81B0A9EF3EF081B2B8EF3EF03F
:107D8A0081B499EF3EF0D4EC3EF06C07000E6C63C0
:107D9A00BBEF3EF0000E6B6FD9EC3EF01200D9EC4F
:107DAA003EF0E5EC3FF012006CC06AF06A513C0804
:107DBA0007E606E06A5109080CE6F7EF3EF0120002
:107DCA003C0E6A5F6D2B3B0E6A65DFEF3EF0E5EF16
:107DDA003EF00A0E6A5F6E2B090E6A65E2EF3EF00C
:107DEA00EEEF3EF06AC06FF0000E6F5D57E0010ED5
:107DFA006F5D58E0020E6F5D59E0030E6F5D5AE049
:107E0A00040E6F5D5BE0050E6F5D5CE0060E6F5D54
:107E1A005DE0070E6F5D5EE0080E6F5D5FE0090EC4
:107E2A006F5D60E0000E6E5D61E0010E6E5D63E005
:107E3A00020E6E5D65E0030E6E5D67E0040E6E5D18
:107E4A0069E0050E6E5D6BE0060E6E5D6DE0070E75
:107E5A006E5D6FE0080E6E5D71E0090E6E5D73E097
:107E6A00000E6D5D75E0010E6D5D75E0020E6D5DD3
:107E7A0075E0030E6D5D75E0040E6D5D75E0050E2F
:107E8A006D5D75E0060E6D5D75E0070E6D5D75E062
:107E9A00080E6D5D75E0090E6D5D75E03F0E836E2F
:107EAA0017EF3FF0060E836E17EF3FF05B0E836EFF
:107EBA0017EF3FF04F0E836E17EF3FF0660E836E9B
:107ECA0017EF3FF06D0E836E17EF3FF07D0E836E56
:107EDA0017EF3FF0070E836E17EF3FF07F0E836EAA
:107EEA0017EF3FF06F0E836E17EF3FF03F0E84904F
:107EFA00806E35EF3FF0060E8490806E35EF3FF0CE
:107F0A005B0E8480806E35EF3FF04F0E8480806E6A
:107F1A0035EF3FF0660E8480806E35EF3FF06D0ED0
:107F2A008480806E35EF3FF07D0E8480806E35EF61
:107F3A003FF0070E8490806E35EF3FF07F0E84800D
:107F4A00806E35EF3FF06F0E8480806E35EF3FF024
:107F5A00BF0E826E1200060E826E1200DB0E826E59
:107F6A001200CF0E826E1200660E826E1200ED0EA5
:107F7A00826E1200FD0E826E1200070E826E1200D1
:107F8A00FF0E826E1200EF0E826E1200FF0E616FFC
:107F9A008C0E626F030E686F0000612FD2EF3FF004
:107FAA00622FD1EF3FF0682FD1EF3FF01200050E9C
:107FBA00636F0000CBEC3FF0632FDFEF3FF012005E
:107FCA000A0E646F0000CBEC3FF0642FE8EF3FF03D
:107FDA001200050E656F0000E5EC3FF0652FF1EF2A
:107FEA003FF012000A0E666F0000E5EC3FF0662FC4
:067FFA00FAEF3FF0120057
:020000040030CA
:04000000550E1E007B
:020005008080F9
:060008000FC00FE00F40E5
:00000001FF
