:107D08009DEF3EF00F0EC16E8A688C6A896A8B6A95
:107D18009368956A926A946A7B0E6B6F000E6C6F1B
:107D2800000E696F000E6D6F000E6E6F000E6F6FA4
:107D3800120086EC3EF081B0BCEC3EF081B2BFECA4
:107D48003EF081B4AEEC3EF06BC06CF0D4EC3EF08B
:107D58009FEF3EF0CBEC3FF081B4AEEF3EF0B40EB7
:107D68006B636B2B6BC06CF0D4EC3EF09FEF3EF076
:107D7800BCEF3EF012006B516BC06CF081B0BCEFF1
:107D88003EF081B2BFEF3EF081B4AEEF3EF0C6ECFC
:107D98003FF06C07000E6C63C2EF3EF09FEF3EF0C1
:107DA8006CC06AF06A513C0807E606E06A510908A7
:107DB8000CE6F2EF3EF012003C0E6A5F6D2B3B0EB4
:107DC8006A65DAEF3EF0E0EF3EF00A0E6A5F6E2B6E
:107DD800090E6A65DDEF3EF0E9EF3EF06AC06FF02C
:107DE800000E6F5D57E0010E6F5D58E0020E6F5D8B
:107DF80059E0030E6F5D5AE0040E6F5D5BE0050EFF
:107E08006F5D5CE0060E6F5D5DE0070E6F5D5EE026
:107E1800080E6F5D5FE0090E6F5D60E0000E6E5D3D
:107E280061E0010E6E5D62E0020E6E5D63E0030EBE
:107E38006E5D64E0040E6E5D65E0050E6E5D66E0E5
:107E4800060E6E5D67E0070E6E5D68E0080E6E5DFB
:107E580069E0090E6E5D6AE0000E6D5D6BE0010E73
:107E68006D5D6CE0020E6D5D6DE0030E6D5D6EE0A4
:107E7800040E6D5D6FE0050E6D5D70E0060E6D5DC4
:107E880071E0070E6D5D72E0080E6D5D73E0090E1E
:107E98006D5D74E03F0E836E12EF3FF0060E836E49
:107EA80012EF3FF05B0E836E12EF3FF04F0E836EC2
:107EB80012EF3FF0660E836E12EF3FF06D0E836E89
:107EC80012EF3FF07D0E836E12EF3FF0070E836EC8
:107ED80012EF3FF07F0E836E12EF3FF06F0E836E4E
:107EE80012EF3FF03F0E806E30EF3FF0060E806ECF
:107EF80030EF3FF05B0E806E30EF3FF04F0E806E3C
:107F080030EF3FF0660E806E30EF3FF06D0E806E02
:107F180030EF3FF07D0E806E30EF3FF0070E806E41
:107F280030EF3FF07F0E806E30EF3FF06F0E806EC7
:107F380030EF3FF03F0E826EBCEF3EF0060E826ED1
:107F4800BCEF3EF05B0E826EBCEF3EF04F0E826ED1
:107F5800BCEF3EF0660E826EBCEF3EF06D0E826E98
:107F6800BCEF3EF07D0E826EBCEF3EF0070E826ED7
:107F7800BCEF3EF07F0E826EBCEF3EF06F0E826E5D
:107F8800BCEF3EF0E5EC3FF0D4EC3EF01200FF0E03
:107F9800616F8C0E626F030E686F0000612FD2EF65
:107FA8003FF0622FD1EF3FF0682FD1EF3FF0120082
:107FB800050E636F0000CBEC3FF0632FDFEF3FF05F
:107FC80012000A0E646F0000CBEC3FF0642FE8EF5C
:107FD8003FF01200050E656F0000E5EC3FF0652FDD
:107FE800F1EF3FF012000A0E666F0000E5EC3FF07B
:087FF800662FFAEF3FF01200C2
:020000040030CA
:04000000550E1E007B
:020005008080F9
:060008000FC00FE00F40E5
:00000001FF
