:107CE2008AEF3EF00F0EC16E8A688C6A896A8B6ACF
:107CF2009368956A926A946AB40E6B6F000E6C6F09
:107D0200000E696F000E6D6F000E6E6F000E6F6FCA
:107D1200120073EC3EF0000E6D6F6F6F6E6F6C6F42
:107D2200B50E6B5D1CE081B0B3EC3EF081B2C2ECEB
:107D32003EF081B4A3EC3EF06BC06CF0E3EC3EF09D
:107D42008CEF3EF0CBEC3FF081B4A3EF3EF0000E9F
:107D52006B636B076BC06CF0E3EC3EF01200000E3D
:107D62006B6F1200000E6D6F6F6F6E6F81B2C2EF9C
:107D72003EF081B4A3EF3EF0E3EC3EF0B3EF3EF011
:107D820012006B516BC06CF0000E6D6F6F6F6E6FF7
:107D920081B0B3EF3EF081B2C2EF3EF081B4A3EF07
:107DA2003EF0DEEC3EF06C07000E6C63C5EF3EF079
:107DB200000E6B6FE3EC3EF01200E3EC3EF0E5ECFC
:107DC2003FF012006CC06AF06A513C0807E606E018
:107DD2006A5109080CE601EF3FF012003C0E6A5F9F
:107DE2006D2B3B0E6A65E9EF3EF0EFEF3EF00A0EB7
:107DF2006A5F6E2B090E6A65ECEF3EF0F8EF3EF01B
:107E02006AC06FF0000E6F5D57E0010E6F5D58E0C3
:107E1200020E6F5D59E0030E6F5D5AE0040E6F5D56
:107E22005BE0050E6F5D5CE0060E6F5D5DE0070EC8
:107E32006F5D5EE0080E6F5D5FE0090E6F5D60E0F2
:107E4200000E6E5D61E0010E6E5D62E0020E6E5D1F
:107E520063E0030E6E5D64E0040E6E5D65E0050E88
:107E62006E5D66E0060E6E5D67E0070E6E5D68E0B1
:107E7200080E6E5D69E0090E6E5D6AE0000E6D5DD2
:107E82006BE0010E6D5D6BE0020E6D5D6BE0030E4B
:107E92006D5D6BE0040E6D5D6BE0050E6D5D6BE07C
:107EA200060E6D5D6BE0070E6D5D6BE0080E6D5D9D
:107EB2006BE0090E6D5D6BE03F0E836E21EF3FF0CC
:107EC200060E836E21EF3FF05B0E836E21EF3FF0D3
:107ED2004F0E836E21EF3FF0660E836E21EF3FF06F
:107EE2006D0E836E21EF3FF07D0E836E21EF3FF02A
:107EF200070E836E21EF3FF07F0E836E21EF3FF07E
:107F02006F0E836E21EF3FF03F0E806E3FEF3FF02A
:107F1200060E806E3FEF3FF05B0E806E3FEF3FF04C
:107F22004F0E806E3FEF3FF0660E806E3FEF3FF0E8
:107F32006D0E806E3FEF3FF07D0E806E3FEF3FF0A3
:107F4200070E806E3FEF3FF07F0E806E3FEF3FF0F7
:107F52006F0E806E3FEF3FF03F0E826E1200060EF4
:107F6200826E12005B0E826E12004F0E826E120043
:107F7200660E826E12006D0E826E12007D0E826E91
:107F82001200070E826E12007F0E826E12006F0EBA
:107F9200826E1200FF0E616F8C0E626F030E686FAD
:107FA2000000612FD2EF3FF0622FD1EF3FF0682F38
:107FB200D1EF3FF01200050E636F0000CBEC3FF0F3
:107FC200632FDFEF3FF012000A0E646F0000CBEC6C
:107FD2003FF0642FE8EF3FF01200050E656F0000DE
:107FE200E5EC3FF0652FF1EF3FF012000A0E666FED
:0E7FF2000000E5EC3FF0662FFAEF3FF01200C2
:020000040030CA
:04000000550E1E007B
:020005008080F9
:060008000FC00FE00F40E5
:00000001FF
